:020000040800F2
:10000000980B0020910100086B150008BD11000835
:1000100069150008D3040008B716000800000000A6
:100020000000000000000000000000006F15000844
:10003000D5040008000000006D15000871150008C7
:10004000AB010008AB010008AB010008AB010008E0
:10005000AB010008AB010008AB010008AB010008D0
:10006000AB010008AB010008AB010008AB010008C0
:10007000AB010008AB010008AB010008AB010008B0
:10008000AB010008AB010008AB010008AB010008A0
:10009000AB010008AB010008AB010008AB01000890
:1000A000AB010008AB010008AB010008AB01000880
:1000B000AB010008AB010008AB010008AB01000870
:1000C000AB010008AB010008AB010008AB01000860
:1000D000AB010008AB010008AB010008AB01000850
:1000E000AB010008AB010008AB01000800F002F80A
:1000F00000F03FF80AA090E8000C82448344AAF183
:100100000107DA4501D100F034F8AFF2090EBAE880
:100110000F0013F0010F18BFFB1A43F0010318473B
:1001200008A0000028A00000103A24BF78C878C1B9
:10013000FAD8520724BF30C830C144BF04680C60ED
:10014000704700000023002400250026103A28BF35
:1001500078C1FBD8520728BF30C148BF0B60704739
:10016000642900F07D80002070471FB51FBD10B5C9
:1001700010BD00F074F91146FFF7F7FF01F04EFBD8
:1001800000F092F903B4FFF7F2FF03BC00F09AF914
:100190000948804709480047FEE7FEE7FEE7FEE71B
:1001A000FEE7FEE7FEE7FEE7FEE7FEE70448054957
:1001B000054A064B70470000D3150008ED00000803
:1001C00098050020980B0020980700209807002031
:1001D0000FB41CB5074B06AA7B44694600900598EE
:1001E00000F025F90020694600F034F91CBC5DF8E8
:1001F00014FB0000790200002DE9F0410E46044690
:10020000002020622046E168884730B3252805D0C9
:10021000D4E901219047206A401CF2E7E1682046BA
:1002200000278847050018D0A5F14100192802D8F9
:1002300020354FF400673246294620462760FFF7F5
:100240008FFF40B1012804D0F61D26F007060836BE
:10025000D8E7361DD6E72846DAE7206ABDE8F08100
:100260002DE9F0410646002410687529314616A58F
:1002700010D0AFF30080002802DA404213A507E057
:1002800031688A0701D512A502E0490704D511A5F6
:10029000012401E0AFF3008000210A2206F12407C7
:1002A00009E0B0FBF2FCB0FBF2F302FB1C003030C3
:1002B00078541846491C0028F3D123462A46304674
:1002C000BDE8F04100F054B8000000002D0000002F
:1002D0002B000000200000004FF000020429C0F0B5
:1002E000128010F0030C00F01B80CCF1040CBCF168
:1002F000020F18BF00F8012BA8BF20F8022BA1EBBA
:100300000C0100F00DB85FEAC17C24BF00F8012B9E
:1003100000F8012B48BF00F8012B70474FF0000296
:1003200000B5134694469646203922BFA0E80C50EB
:10033000A0E80C50B1F12001BFF4F7AF090728BFC6
:10034000A0E80C5048BF0CC05DF804EB890028BF42
:1003500040F8042B08BF704748BF20F8022B11F06B
:10036000804F18BF00F8012B7047704770477047E7
:100370002DE9F0470D4699469246044600F12408BF
:100380000168880604D5E06921F01001216000E0D1
:100390000120A84201DD471B00E00027A1697A196E
:1003A00002EB0900081AA0612078C00602D420469A
:1003B000AFF30080002608E0D4E901211AF8060016
:1003C0009047206A401C761C20624E45F4DB207862
:1003D000C0060AD52046AFF3008006E0D4E901212B
:1003E00030209047206A401C2062381EA7F1010788
:1003F000F4DC07E0D4E9012118F805009047206AF1
:10040000401C2062281EA5F10105F3DC2046AFF355
:1004100000802078000602D50220BDE8F087012088
:10042000FBE7000001694A1C02610878704700B5CB
:100430008FB0CDE901310021059105497944CDE91D
:10044000031011466846FFF7D7FE0FB000BD00004D
:10045000E5FFFFFF0A6802F8010B0A607047754666
:1004600000F02CF8AE4605006946534620F0070020
:10047000854618B020B5FFF799FEBDE820404FF043
:1004800000064FF000074FF000084FF0000B21F07E
:100490000701AC46ACE8C009ACE8C009ACE8C0094B
:1004A000ACE8C0098D46704710B50446AFF3008034
:1004B0002046BDE81040FFF765BE000000487047C9
:1004C0003805002001491820ABBEFEE726000200D7
:1004D0007047FEE7704772B6FEE7000070B504464D
:1004E00000F0FEF80546601C02D004480078044481
:1004F00000F0F6F8401BA042FAD370BD04000020C3
:100500002DE9F84FDFF8B8910024A9F1040B234638
:100510000F2709F1040AABF1040EC9E00125A5403B
:100520002A40AA427DD1674ED1F804C0ACEB060840
:10053000B44532D014DCBCF1030F3AD009DCBCF175
:10054000000F2AD0BCF1010F1CD0BCF1020F31D139
:100550001DE0BCF1110F17D0BCF1120F2AD119E028
:10056000B8F5881F19D006DCB8F5803F15D0B8F56E
:10057000801F1FD111E0B8F5001F0ED0B8F5041F81
:1005800018D10AE0CB6815E0CB681B1D12E0CB68E0
:1005900008330FE0CB680C330CE08B682BB1012BD8
:1005A0004FF0080303D0456104E0042302E0056135
:1005B00000E00023FF2A01D8064601E000F104060E
:1005C0004FEA840501D9A5F12005D6F8008007FA85
:1005D00005FC28EA0C0803FA05F548EA0508C6F800
:1005E00000804D68ED0062D5374DAE6946F00106DA
:1005F000AE61AD6924F0030605F001050095334DA9
:1006000006EB050CDCF80850A607360F07FA06F8CB
:1006100025EA0805DFF8B880404503D14FF000080F
:1006200017E044E0DFF8AC80404502D14FF001080C
:100630000FE0DFF8A480404502D14FF0020808E047
:10064000DFF89880404502D14FF0030801E04FF0F9
:10065000040808FA06F848EA0508CCF808804D684E
:10066000D9F80060ED024D4601D5164300E09643EF
:100670002E604D68DAF80060AD02554601D516438C
:1006800000E096432E604D68DBF80060AD035D46E8
:1006900001D5164300E096432E604D68DEF80060F9
:1006A000ED03754601D5164300E096432E60641CA9
:1006B0000D682A46E5407FF431AFBDE8F88F0000B1
:1006C0000804014000001110001002400000014029
:1006D00000080140000C01400010014000140140DE
:1006E00001488068704700000400002070B50400D5
:1006F00025D094F83D00002520B984F83C502046D0
:1007000000F04EF9242084F83D002068016821F0B3
:10071000010101602068016841F400410160206826
:10072000016821F40041016000F08AFA4D4A6168D5
:10073000914201D84C4900E04C49884201D2012045
:1007400070BD4B492368B0FBF1F15E6826F03F06AF
:100750000E435E606368934206D94FF49673594323
:100760004FF47A73B1FBF3F12368491C1E6A26F03B
:100770003F06314319626168914210D84900401E1A
:10078000B0FBF1F2521CC2F30B02042A01D2042086
:1007900022E0B0FBF1F0401CC0F30B001CE0A268AB
:1007A000F2B301EBC10303EB0116431EB3FBF6F3F7
:1007B0005B1C43F480431B0549D092B301EBC1029B
:1007C00002EB0111401EB0FBF1F0401CC0F30B0026
:1007D00040F4804040F400402168CA694CF6FF7341
:1007E0009A431043C861D4E90710014320680268A6
:1007F00022F0C00211430160D4E9030101432068E3
:10080000826848F2FF339A4311438160D4E90501BD
:1008100008432168CA6822F0FF021043C86001E063
:100820000EE016E02068016841F0010101602564D6
:10083000202084F83D00256384F83E50002070BDE0
:1008400001EB4106431EB3FBF6F35B1CB3E701204B
:10085000C2E701EB4101401EB0FBF1F0401CC0F3C8
:100860000B00B7E7A086010080841E0000093D0050
:1008700040420F002DE9F84F1F4690468A46044635
:10088000DDF82890FFF72CFF054694F83D0020285E
:100890007FD11923012240492046009500F020FD18
:1008A000002876D194F83C00012872D0012084F809
:1008B0003C0020680168C90703D1016841F00101CB
:1008C00001602068016821F400610160212084F842
:1008D0003D00102084F83E0000262664C4F82480E1
:1008E0006785608D20852D48E0622B464A4651463B
:1008F000204600F07BFC90B9206841698069009037
:1009000036E02A464946204600F090FD50B1206C62
:10091000042804D12068016841F4007101600120BD
:10092000BDE8F88F606A216800780861606A401C41
:100930006062618D491E6185218D491E89B22185C4
:1009400022685369DB435B070BD451B10078106117
:10095000606A401C6062608D401E6085208D401E74
:1009600020852A464946204600F08EFC0028CED13C
:10097000208D0028C5D154F83D0B016841F4007169
:100980000160202004F81E09E67766770020C7E79B
:10099000FFE70220C4E70000020010000000FFFF94
:1009A00010B586B000210091019102910391006879
:1009B000104988421BD1104CA06940F00800A0618A
:1009C000A069694600F0080004904FF44060009070
:1009D00012200190032003900848FFF791FDE06981
:1009E00040F48000E061E06900F48000049006B00B
:1009F00010BD00000058004000100240000C0140F3
:100A00000248816802781144816070470400002028
:100A1000074810B5016841F010010160032000F0A3
:100A200067F80F2000F006F800F024F8002010BD51
:100A30000020024070B50D4D04464FF47A712878BD
:100A4000B1FBF0F00A490968B1FBF0F000F0BEFA22
:100A500048B9102C07D200222146501E00F028F879
:100A600000206C6070BD012070BD000004000020FB
:100A7000100000200C4808B5816941F00101816136
:100A8000816901F001010091C16941F08051C161AA
:100A9000C06900F0805000900448416821F0E06196
:100AA00041F00071416008BD0010024000000140AB
:100AB000F0B40E4B1B680C46C3F30223C3F10705C9
:100AC000042D00D90425191D072901D2002300E0B7
:100AD000DB1E012606FA05F1491E214099409E4081
:100AE000761E16403143F0BC00F0E6BD0CED00E090
:100AF000064900F0070208684FF6FF03184040EA75
:100B00000220034A10430860704700000CED00E02B
:100B10000000FA052DE9F0470F46050061D0434E6D
:100B2000306800F00700B84209D2306820F00700B2
:100B300038433060306800F00700B84251D128686F
:100B40003B4C810712D5400703D5606840F4E06054
:100B500060602878000703D5606840F460506060EA
:100B60006068A96820F0F000084360602878C0073A
:100B700028D06868012810D02168022810D0890781
:100B800000292EDA616821F0030101436160FFF75B
:100B9000A7FD804641F288390DE021688903EFE71F
:100BA0008901EDE7FFF79CFDA0EB0801494502D95B
:100BB0000320BDE8F0876068696800F00C00B0EBC6
:100BC000810FEFD1306800F00700B8420BD93068D0
:100BD00020F0070038433060306800F00700B8426A
:100BE00001D00120E5E72878400705D56068E9686D
:100BF00020F4E060084360602878000706D560684C
:100C0000296920F4605040EAC100606000F028F8D3
:100C10006168084AC1F30311515CC8400649086085
:100C200006480068FFF706FF0020C2E700200240E8
:100C300000100240F63900081000002008000020D3
:100C40000448054900684968044AC1F30221515C1F
:100C5000C84070471000002000100240063A00080B
:100C60000E4A51680E4801F00C03042B11D0082BDA
:100C70000FD10C48C1F38343C903C05C0AD5516846
:100C8000084AC1F34041921E515C054A5043B0FBF3
:100C9000F1F07047044948437047000000100240DB
:100CA00000127A00E639000800093D002DE9F84FEE
:100CB000040070D02078C04DC00749D06868C0F3E8
:100CC0008100012807D06868C0F38100022809D19B
:100CD0006868C00306D52868800339D56068002895
:100CE000E7D035E06068B0F5803F0BD010B1B0F5CB
:100CF000A02F11D0286820F480302860286820F4C4
:100D0000802002E0286840F480302860606890B15C
:100D1000FFF7E6FC06460AE0286840F480202860D9
:100D2000F0E700BFFFF7DCFC801B642873D828685D
:100D30008003F7D50CE0FFF7D3FC064605E000BFC3
:100D4000FFF7CEFC801B6428F0D828688003F7D416
:100D500020789A4E80074FF001094FF0000839D5EE
:100D6000686810F00C0F07D06868C0F38100022893
:100D700009D16868C00306D42868800714D52069A3
:100D8000012808D110E02069B0B1C6F80090FFF743
:100D9000A7FC074605E00AE1FFF7A2FCC01B0228FA
:100DA000C4D828688007F7D52868616920F0F80062
:100DB00040EAC10028600DE0C6F80080FFF790FC13
:100DC000074604E0FFF78CFCC01B022823D82868E4
:100DD0008007F7D4207800072CD57948A169D9B1CC
:100DE000C0F80090FFF77CFC074604E0FFF778FCB2
:100DF000C01B02280FD8686A8007F7D571484FF4E6
:100E0000FA510068B0FBF1F0009000BF0098411E5D
:100E10000091FAD20EE080E0C0F80080FFF760FC9D
:100E2000074604E0FFF75CFCC01B022875D8686A1F
:100E30008007F7D42078400760D5E8690027C00014
:100E400008D4E86940F08050E861E869012700F0C3
:100E5000805000905C480168C90513D4016883463E
:100E600041F480710160FFF73BFC824606E000BF61
:100E7000FFF736FCA0EB0A0064284ED8DBF8000030
:100E8000C005F5D5E06801280AD008B1052813D0BF
:100E9000286A20F001002862286A20F0040002E09D
:100EA000286A40F001002862E06841F2883B98B16E
:100EB000FFF716FC82460BE0286A40F00400286227
:100EC000EEE700BFFFF70CFCA0EB0A0159455AD82A
:100ED000286A8007F6D50CE0FFF702FC824605E0A1
:100EE000FFF7FEFBA0EB0A0159454CD8286A8007A2
:100EF000F6D41FB1E86920F08050E861E06988B35A
:100F00006968C1F38101022944D00228C6F86080D3
:100F100004D0FFF7E5FB044638E034E0FFF7E0FBE0
:100F2000074604E0FFF7DCFBC01B02282BD828682B
:100F30008001F7D4206AB0F5803F05D16868A168C8
:100F400020F4003008436860D4E908010843696868
:100F500021F4741108436860C6F86090FFF7C0FB85
:100F6000044606E025E000BFFFF7BAFB001B02289D
:100F700009D828688001F7D51BE000BFFFF7B0FB58
:100F8000001B022802D90320BDE8F88F28688001E1
:100F9000F4D40EE00128F7D06868226A00F48031AA
:100FA000914204D1616A00F47010884201D001209E
:100FB000EAE70020E8E7000000100240000042429B
:100FC00080044242100000200070004010B5401E16
:100FD000B0F1807F01D3012010BD4FF0E0246061AB
:100FE0000F21601700F068FB0020A061072020613E
:100FF000002010BD70B590F83C20012A26D00124B5
:1010000080F83C40022280F83D2003685A689D68C1
:1010100022F070060A6832435A600D4B02689A4209
:1010200008D0B2F1804F05D00A4B9A4202D00A4B49
:101030009A4204D1496825F080031943916080F8F1
:101040003D40002180F83C10084670BD022070BD74
:10105000002C0140000400400008004010B50400CE
:1010600003D094F83D0010B107E0012010BD00202E
:1010700084F83C00204600F01FF8022084F83D0070
:10108000211D206800F0A6FA012084F8460084F8AB
:101090003E0084F83F0084F8400084F8410084F862
:1010A000420084F8430084F8440084F8450084F842
:1010B0003D00002010BD000008B5006806498842C8
:1010C00008D10648816941F400618161806900F4BA
:1010D0000060009008BD0000002C0140001002409C
:1010E00070B5044690F83C000025012817D0012671
:1010F00084F83C60022084F83D002068826822F079
:10110000770222F47F4282600868502838D00DDCD4
:1011100020284FD005DC90B3102811D14AE00220DE
:1011200070BD302846D040280AD13BE060282FD03F
:1011300070280DD0B0F5805F03D0B0F5005F12D0FD
:10114000012584F83D60002084F83C00284670BDED
:10115000CB68D1E90121206800F078FA2068816825
:1011600041F0770109E0CB68D1E90121206800F066
:101170006DFA2068816841F480418160E1E719E0FF
:10118000CA684968206800F073FA5021206806E0B8
:10119000CA684968206800F07CFA6021206800F085
:1011A0005FFACEE7CA684968206800F061FA40211A
:1011B0002068F4E7226801461046F0E7FEE7016880
:1011C0004A69D24352050FD46FF480624A6100210C
:1011D00040F8301F202242738173026942F00402FA
:1011E000026101730120704700207047F8B5044682
:1011F000C06A1E460D461746082807D0012805D0AC
:1012000010F5803F02D0206B122804D120680168BD
:1012100041F480710160134600224FF00111204615
:10122000009600F05DF840B120680068C00502D566
:101230004FF4007020640320F8BD2069B0F5804FA2
:101240000ED00620216800EAD51040F0F0000861B9
:1012500033463A460B49204600F08AF878B902E056
:1012600005F0FE0000E0E8B2216808610549334658
:101270003A46891F204600F07BF80028DCD0012088
:10128000F8BD00000800010070B516460D46044682
:101290001EE02046FFF793FF08B1012070BD681CD7
:1012A00016D0FFF71DFA801BA84200D885B9206828
:1012B0004069C04340070BD5002044F8300F20217F
:1012C0006173A073216941F0200121612073E4E77B
:1012D00020684069C0434007DBD4002070BD000097
:1012E0002DE9F047984617460D460446C1F30746D8
:1012F000DDF820902AE000BFB8F1FF3F26D0FFF7CD
:10130000EFF9A0EB0901414502D8B8F1000F1DD15A
:101310002068012E16D0806925EA00000004000C28
:1013200012D00020B84211D1002044F8300F202103
:101330006173A073216941F02001216120730120B4
:10134000BDE8F0874069E7E70120EBE72068012E60
:101350000AD0806925EA00000004000C06D00020B5
:10136000B842C9D00020EBE74069F3E70120F7E776
:101370002DE9F047984616460D4604464FF0000901
:101380004FF0200AC1F3074723E020684069C043BB
:10139000400515D42068016841F40071016021689E
:1013A0006FF480604861C4F8309084F83DA084F800
:1013B0003E90216C41F00401216484F83C9021E0CE
:1013C000701C06D0FFF78CF9A0EB0800B04203D8E0
:1013D00016B1012F1FD021E02068012F15D08069A0
:1013E00025EA00000004000C18D000BF44F8309F2C
:1013F00084F80DA084F80E90216941F0200121614C
:1014000084F80C900120BDE8F087406925EA0000CF
:101410000004000CEAD12068406901E0206880697E
:1014200025EA00000004000CAFD1ECE770B51646C9
:101430000D4604461EE02046FFF7C1FE08B101201C
:1014400070BD681C16D0FFF74BF9801BA84200D86E
:1014500085B920684069C04300060BD5002044F8D8
:10146000300F20216173A073216941F020012161B7
:101470002073E4E720684069C0430006DBD4002005
:1014800070BD00000D4808B5816941F020018161FF
:10149000816901F020010091816941F008018161B9
:1014A000816901F008010091816941F004018161C5
:1014B000806900F00400009008BD000000100240A8
:1014C0000D4810B50B4901600C49416000214FF4F3
:1014D00080428160C0E9031241618161C1610162A2
:1014E000FFF704F9002803D0BDE81040FEF7F3BF72
:1014F00010BD0000005800401C000020A086010024
:1015000010B586B000241748009401940294039407
:1015100004941349059401604721C0E901144FF672
:10152000FF71C0E9031444618461FFF797FD08B1BE
:10153000FEF7D1FF4FF48050009069460948FFF74D
:10154000CFFD08B1FEF7C7FF049404A90548059430
:10155000FFF750FD002801D0FEF7BDFF06B010BD1B
:10156000002C014070000020FEE7FEE77047704746
:10157000FFF746BA30B58FB028216846FEF7CEFE99
:1015800014210AA8FEF7CAFE01210804CDE90010C3
:101590000024029402250491CDE907504FF4E01095
:1015A00009906846FFF782FB08B172B6FEE70F208C
:1015B000CDE90A054FF48060CDE90C4002210AA86C
:1015C0000E94FFF7A7FA002801D072B6FEE70FB01D
:1015D00030BD7047F0B50268194B1A4C1A4D4FF0E8
:1015E0008047984205D0B84203D0A04201D0A8421B
:1015F00003D122F070064A683243984205D0B842BF
:1016000003D0A04201D0A84203D122F44074CA689A
:1016100022434C6922F08002224302608A68C2623F
:101620000A688262984201D109690163012141611E
:101630000169C90703D0016921F001010161F0BD11
:10164000002C0140000400400008004010B58468F0
:1016500042EA032224F47F440A432243826010BDFD
:10166000826822F070020A4342F0070181607047ED
:1016700010B5036A046A24F001040462846924F04A
:10168000F00444EA021423F00A020A43846102626D
:1016900010BD10B5036A046A24F010040462846962
:1016A00023F0A00324F4704444EA023243EA011117
:1016B0008261016210BDFEE70907090E002804DB04
:1016C00000F1E02080F80014704700F00F0000F1F6
:1016D000E02080F8141D704710B5044600F002FBAE
:1016E0000949204600F078FE08A320220521204663
:1016F00000F0E2FD204600F058FEBDE8104040F644
:10170000B830FEF7EBBE00008F530008363332339B
:1017100030373033303233310000000010B504462A
:1017200000F0E0FA0121204600F069FE0021204689
:1017300000F062FE2B49204600F04EFE2AA3142240
:101740000021204600F0B8FD0121204600F054FEA3
:101750002649204600F040FE25A3082215212046F8
:1017600000F0AAFD0021204600F046FE1D4920465B
:1017700000F032FE1FA31E223321204600F09CFD04
:101780001DA31E224321204600F096FD2F23232275
:101790000221204600F0D1FB2F23242203212046E2
:1017A00000F0CBFB0C2320222D21204600F08CFDE5
:1017B0000C2321222E21204600F086FD0F492046D1
:1017C00000F00AFE0EA336220121204600F074FD2F
:1017D000204600F0EAFDBDE810404FF47A70FEF7B5
:1017E0007DBE000027740008550000009C9600088C
:1017F0003800000067000000B2000000044100084B
:101800006769746875622E636F6D2F6F6C696B7298
:101810006175732F7538673200000000A6B0FFF7BE
:10182000F7F8FFF7A7FEFFF72DFEFFF749FEFFF7DA
:1018300067FE684600F03CFA684600F071FD6846B5
:10184000FFF76CFF684600F023FA684600F08EFD53
:101850000028F4D16846FFF73FFF684600F004F81F
:10186000684600F027F8E7E770B5064680246FF079
:101870007705304600F036FA0949304600F0ACFDF5
:10188000A1B208A32022304600F016FD304600F039
:101890008CFD0520A41EFEF721FEAC42E9DC70BDE4
:1018A000A6620008363332333037303330323331CA
:1018B0000000000070B5064640246FF01D0530465C
:1018C00000F010FA0949304600F086FDA2B208A3E4
:1018D0000221304600F0F0FC304600F066FD0520A5
:1018E000A41EFEF7FBFDAC42E9DC70BDA662000859
:1018F000363332333037303330323331000000008A
:101900002DE9FC47824600F0EDF900250024AAB23B
:10191000A1B2504600F0C4FB504600F046FD103422
:10192000802CF4DB1035402DF0DB504600F0DAF966
:101930001E27402680254FF6FF74784206EB4001B3
:1019400089B205EB800083B20091BAB204EA470184
:10195000504600F0D0F9504600F027FDBF1E002F82
:10196000EBDC504600F0BEF90027784206EB400160
:1019700089B205EB800083B20091BAB204EA470154
:10198000504600F05EFA504600F00FFDBF1C202FBD
:10199000EBDB504600F0A6F91E274FF0030800BF0E
:1019A00097FBF8F07942C0F10A0006EB410280B2E1
:1019B00092B2CDE9002005EB810083B2BAB204EA0D
:1019C0004701504600F083FB504600F0EEFCBF1E7E
:1019D000002FE5DC504600F085F9B1460027464669
:1019E00097FBF6F07942C0F10A0009EB410280B2A0
:1019F00092B2CDE9002005EB810083B2BAB204EACD
:101A00004701504600F0D6FB504600F0CEFCBF1C0C
:101A1000202FE5DB504600F065F902260F25B3B212
:101A2000202240215046009500F0A7F9504600F0D2
:101A3000BCFCF61C402EF2DB504600F053F9402669
:101A4000B3B2202240215046009500F076F950466E
:101A500000F0ABFCF61E002EF2DC504600F042F91E
:101A60000226B0B2CDE9000504EA46032022402157
:101A7000504600F0C4F9504600F097FCF61C202EAA
:101A8000EFDB504600F02EF92026B0B2CDE900057C
:101A900004EA460320224021504600F08EF95046C9
:101AA00000F083FCF61E002EEFDCBDE8FC87000092
:101AB0002DE9F0430A24264FDFF8988087B081464D
:101AC00026460425484600F00DF9204601F075FE33
:101AD00000223B4601F0EAFC0022434601F084FE6E
:101AE00001F03CFE02461CA102A8FEF771FB1C4956
:101AF000484600F071FC1BA320221021484600F04C
:101B0000DBFB1B49484600F067FC02AB3122642135
:101B1000484600F0D1FBCDE90065A3B22822102190
:101B2000484600F0D4FACDE9006550232822102160
:101B3000484600F03FFB484600F037FCA41C502C00
:101B4000C0DD07B04FF4FA70BDE8F043FEF7C6BC45
:101B50000000544000005940256425250000000085
:101B60008F53000853544D333220553867320000EC
:101B7000D74300087CB506464FF47A7500F0B2F8FA
:101B800017A30E220021304600F096FB16483024A1
:101B9000CDE90040802310220021304600F09AFB5E
:101BA000304600F002FC2846FEF798FC304600F074
:101BB00099F80EA30E220021304600F07DFB0E485E
:101BC0008023CDE9004010220021304600F082FB46
:101BD000304600F0EAFB2846BDE87C40FEF77EBCBC
:101BE0004472617758424D00289B000862696C6915
:101BF00062696C6900000000289E00087FB51DA383
:101C000005460FCB8DE80F004FF47A74284600F09C
:101C100069F81C49284600F0DFFB6B4605220021CD
:101C2000284600F049FB284600F0BFFB2046FEF79F
:101C300055FC1549284600F0CFFB6B461E220021BB
:101C4000284600F039FB284600F0AFFB2046FEF79F
:101C500045FC0E49284600F0BFFB6B463C220021A4
:101C6000284600F029FB284600F09FFB2046FEF79F
:101C700035FC7FBD53544D333246313033433854F5
:101C8000360000000E3A0008D7430008784D0008DF
:101C900010B50446FFF70CFF2046FFF731FE204643
:101CA000FFF7ACFF2046BDE81040FFF763BF000020
:101CB00010B50446084B094A094900F0DBFB2046F1
:101CC00001F095F90021204601F0A1F92046BDE878
:101CD000104000F007B8000009340008B1300008D7
:101CE000C499000801680A7C90F83810406B514391
:101CF000C900FEF7F1BA2DE9F8438146089C1E465B
:101D0000101980B20090881983B21546884648465B
:101D100000F014FB00280ED00027002C0BD0334617
:101D20002A4641464846009700F00EF96D1C641E95
:101D3000ADB2A4B2F1E7BDE8F8832DE9F8431C4643
:101D400080461019401C80B200900819401C83B2D4
:101D50001546101B82B20E46081B81B2089F4046F2
:101D600000F0ECFA002806D023462A4631464046C9
:101D7000009700F035FCBDE8F8832DE9F8431C46D8
:101D800080461019401C80B200900819401C83B294
:101D90001546101B82B20E46081B81B2089F4046B2
:101DA00000F0CCFA002806D023462A4631464046A9
:101DB000009700F0A7FCBDE8F8832DE9FC478146B9
:101DC000DDE90A481019401C80B21D4600904819F0
:101DD000401C83B21646101B82B20F46481B81B2CC
:101DE000484600F0ABFA002807D0CDE900482B4662
:101DF00032463946484600F020FDBDE8FC872DE913
:101E0000FC478146DDE90A481019401C80B21D4696
:101E100000904819401C83B21646101B82B20F4630
:101E2000481B81B2484600F089FA002807D0CDE966
:101E300000482B4632463946484600F09CFDBDE836
:101E4000FC872DE9F84F83460A9E9A46901980B286
:101E500001EB0A04009015460F46A3B2584600F065
:101E60006DFA00282FD04FF0000953462A46394614
:101E70005846CDF8009000F067F8022E23D3B61E26
:101E8000360405F10105360CADB214D04FF001084F
:101E900033462A4639465846CDF8008000F054F8BB
:101EA000641EA1B233462A465846CDF8008000F0A1
:101EB0004BF8A81985B253462A4639465846CDF8FC
:101EC000009000F041F8BDE8F88F2DE9F04104469C
:101ED00090F870001F4615460E4630B1012809D013
:101EE00002280CD0032815D10FE0E16D2046884769
:101EF000284408E0E16D20468847301A09E0E16D8A
:101F000020468847281A85B204E0E16D20468847BC
:101F1000304486B22846A4F86460A4F866003946C6
:101F20000025204600F00AFF010003D0204600F003
:101F300035FE85B22846BDE8F08138B5002400940E
:101F400000F002F838BD00003FB581B0044690F8BB
:101F50008C00089900283AD0BDF81000002836D02F
:101F6000012811D9022902D0032907D00CE0BDF8BD
:101F70000820101A401CADF8080005E0BDF80C2040
:101F8000101A401CADF80C0011F0010521D0B4F876
:101F90004810BDF80800814219D8B4F84A108142AF
:101FA00015D9B4F84E30B4F84C2004A90DF10C004A
:101FB00000F0F8FA00280AD00095206BBDF8103028
:101FC000BDF80C208568BDF808102046A84705B06C
:101FD00030BDB4F84C10BDF80C008142F7D8B4F80D
:101FE0004E108142F3D9B4F84A30B4F8482004A91D
:101FF00002A8DDE72DE9FF4F81B090F89270DDF87F
:1020000038801D460E4681468FB1002082460398D7
:10201000039A401C80B20090701983B2484600F0C9
:102020008DF9002839D001244FF0000B31E0012058
:10203000ECE700BF98F80000204000230CE05B1C98
:10204000761C61009BB2B6B211F0FF0402D10124EC
:1020500008F101086D1EADB255B198F8001001EA03
:10206000040110B10029EAD103E00029E7D003E020
:1020700010B189F8927004E099F8910048B989F894
:1020800092A0F01A81B2CDF800B04846039AFFF74B
:102090005BFF002DCED189F8927005B0BDE8F08FBE
:1020A00008B5B0F84C30934210D8B0F84E30934297
:1020B0000CD9B0F848308B4208D8B0F84A308B427F
:1020C00004D9002300930123FFF73EFF08BD2DE94B
:1020D000FF4F83B01F46DDE910A402EB0A06B0B241
:1020E000CD19009090468946ABB2039800F026F9CE
:1020F00000285CD009EB04001FFA80FB08EB040009
:1021000081B2281B401E85B2301B401E80B2CDE933
:10211000010102200A460090234659460398FFF722
:102120002CFE01200090DDE9022023462946FFF71E
:1021300024FE0420009023465946019A0398FFF795
:102140001CFE0820009023462946019A0398FFF7B9
:1021500014FE0BF101011FFA81FB0299381B491C87
:10216000001B80B289B20291032811D3801E86B26F
:10217000601C85B233464246594600950398FFF7E6
:10218000BAFD334600955946019A0398FFF7B3FD0F
:10219000AAEB0400001B80B2032808D3801E80B283
:1021A0000090DDE902203B464946FFF7A4FD07B059
:1021B000BDE8F08F2DE9FF4F83B01C46DDE91065C7
:1021C00002EB060A1FFA8AF001EB04090090174699
:1021D00088461FFA89F3039800F0B0F8002867D00A
:1021E00008EB05001FFA80FB781981B2A9EB050006
:1021F000401E80B2CDE90110AAEB0500401E1FFA77
:1022000080F902200A4600902B4659460398FFF7B2
:1022100094FD01200090DDE902102B46019AFFF7A2
:102220008CFD042000902B464A4659460398FFF740
:1022300084FD08200090DDE902102B464A46FFF796
:102240007CFD601B711B401B491B8DB20BF1010112
:102250001FFA81FA019980B2491C1FFA81FB0328F9
:1022600010D3801E80B2814603463A465146761E00
:102270000398FFF762FEB81982B24B4651460398A5
:10228000FFF75BFE032D13D3AD1EADB22B465A46AE
:102290004146641E039800F017F808EB040081B271
:1022A000039807B02B465A46BDE8F04F00F00CB833
:1022B00007B0BDE8F08F000030B4024C446030BC81
:1022C00000F00BBC7530000838B501240094FFF70E
:1022D0003BFE38BD2DE9F84F8246DDE90A57D81D8F
:1022E000C0F3CC08501980B21C460090081983B284
:1022F00016468946504600F021F800280ED00BE023
:1023000023463246494650460097FFF773FE761C37
:102310006D1E4744B6B2ADB2002DF1D1BDE8F88FC5
:1023200010B5044690F8930010B12046FFF7DAFC90
:102330002046BDE81040002100F040B870B50D46C1
:102340001E460446B0F84E10B0F84C00049B00F056
:1023500052FD002809D0B4F84A10B4F848003346BA
:102360002A46BDE8704000F046BD70BD70B5044619
:1023700000F0D1FD94F8390094F838100844C5B243
:102380002068407CA84204D8204600F038FE002097
:1023900070BD94F8930010B12046FFF7A3FC2946C6
:1023A000204600F00BF8012070BD10B5044600F087
:1023B000B2FD2046BDE8104000F021BE10B5044635
:1023C00080F83910006B016820468847206B41680F
:1023D0002046BDE81040084710B50446806D88428D
:1023E00009D004F17400A16500F060FD2046BDE84D
:1023F000104000F05BB810BD80F87010704780F896
:102400006D1070470149C16570470000512B0008ED
:102410000021A0F85010A0F854104FF6FF71A0F85A
:102420005210A0F85610016B4968084770B5044671
:1024300000250498A565E362616384F8382084F878
:10244000395084F86D5084F8915084F88D500121F2
:1024500084F8921084F8931020630168204688471E
:102460002046FFF7D5FF2046FFF7CCFF84F87050D9
:1024700070BD00007CB50C46009313460546084A23
:10248000084900F0CCFD01A800F00AFD0146064B0A
:1024900000949DF804202846FFF7C8FF7CBD00008B
:1024A000D931000801330008112E000810B5816DE4
:1024B00000291AD090F9813080F88E3090F982206E
:1024C00080F88F2090F88D1000290ED001290DD0B2
:1024D00090F97E4090F980100C449C4201DD80F818
:1024E0008E408A4201DD80F88F1010BD90F9831074
:1024F0008B4201DA80F88E1090F98410F1E72BB14D
:10250000012B05D0022B06D0104402E0084400E065
:10251000801A80B27047401AFBE72BB1012B05D01F
:10252000022B06D0401A02E0104400E0084480B2BA
:102530007047801AFBE738B50446B0F856000090A3
:10254000B4F85230B4F85420B4F850102046FFF7D5
:10255000F5FE18B3012084F88C00B4F84810B4F8E4
:102560005000814201D2A4F84800B4F84A10B4F8EF
:102570005200814201D9A4F84A00B4F84C10B4F8D2
:102580005400814201D2A4F84C00B4F84E10B4F8C3
:102590005600814201D9A4F84E0038BD002084F8CD
:1025A0008C0038BD30B504880D882544ADB2AC42EE
:1025B00005D99C4202D25D1EADB200E014469C4299
:1025C00001D2954201D8002030BD944200D2144679
:1025D0009D4200D91D460480281B0880012030BD83
:1025E0002DE9FF4FC3F1010083B006B25842914676
:1025F000DDF840A040008B4601271C46CDE9009A3B
:1026000000250FFA80F85B462246294615E0002E89
:1026100008DB08F102000FFA80F8641E06EB0800E0
:10262000A4B206B26D1CBF1C3FB2CDE9009AADB298
:10263000F01906B25B4622462946039800F005F8D9
:10264000A542E4D307B0BDE8F08F2DE9FF4F83B07A
:102650000E46DDE9108703EB060002901546A8EB55
:102660000600019003EB05001C46F907A8EB050BDB
:1026700000900DD002981FFA8BF281B20398FFF7F9
:102680000FFD019882B2009881B20398FFF708FD10
:10269000B907A4EB060AA4EB05090DD51FFA8BF2C6
:1026A0001FFA8AF10398FFF7FBFC01981FFA89F1E2
:1026B00082B20398FFF7F4FC08EB0504390708EB36
:1026C00006050BD50298A2B281B20398FFF7E8FC89
:1026D0000098AAB281B20398FFF7E2FC78070ED502
:1026E000A2B21FFA8AF10398FFF7DAFC039807B049
:1026F000AAB21FFA89F1BDE8F04FFFF7D1BC07B0CD
:10270000BDE8F08F2DE9FF4FC3F1010083B006B2A1
:1027100058429146DDF840A040008B4601271C46F8
:10272000CDE9009A00250FFA80F85B46224629463B
:1027300015E0002E08DB08F102000FFA80F8641E95
:1027400006EB0800A4B206B26D1CBF1C3FB2CDE977
:10275000009AADB2F01906B25B46224629460398AC
:1027600000F005F8A542E4D307B0BDE8F08F2DE9ED
:10277000FF4F83B0164610980F46A0EB060B03EBF5
:10278000070001901098DDF84490A0EB07009846F0
:102790005FEAC97103EB060A02F1010507F10104C2
:1027A00000900FD00198ABB281B21FFA8BF2039860
:1027B000FFF78AFD0098A3B282B21FFA8AF103984C
:1027C000FFF782FD5FEA8971A8EB0707A8EB060611
:1027D0000DD5ABB21FFA8BF2B9B20398FFF774FDB7
:1027E0000098A3B282B2B1B20398FFF76DFD5FEA21
:1027F00009700DD50198ABB281B2109A0398FFF71A
:1028000063FDA3B21FFA8AF1109A0398FFF75CFDEB
:102810005FEA49700ED5ABB2B9B2109A0398FFF7D0
:1028200053FD109A039807B0A3B2B1B2BDE8F04FC0
:10283000FFF74ABD07B0BDE8F08F2DE9FF4F87B025
:102840001C46149D03FB04F105FB05F047000490B2
:102850000020CDE90230C3F101004E00001B6843A7
:102860004FF0000800FB05F907FB04FBC246059189
:102870001EE015990998CDE90001DDE90703DDE9BE
:10288000021200F048F803980599401C80B20390AA
:1028900088198844059009EB4800B244002807DDF8
:1028A0000298C844401E80B2ABEB070BB9440290BB
:1028B000D345DEDA00200290C5F10100401B6043E1
:1028C00000FB04F8AB460024A14606FB0BF5DDF83F
:1028D00010A01BE015990998CDE90001DDE9070377
:1028E0005A46029900F017F802985444401C80B2EE
:1028F000029008EB4400B944BA44002806DDABF16D
:10290000010044441FFA80FBAD1BB044A945E1DD42
:102910000BB0BDE8F08F2DE9F05F9146DDE90AA428
:1029200088461E468346E207AAEB090503EB080723
:1029300004D0AAB2B9B25846FFF7B2FBA107A6EB82
:10294000080604D5AAB2B1B25846FFF7A9FB220780
:102950000AEB090504D5AAB2B9B25846FFF7A0FBA5
:10296000600706D5AAB2B1B25846BDE8F05FFFF7DE
:1029700097BBBDE8F09F2DE9FF4F87B01C46149D23
:1029800003FB04F105FB05F0470004900020CDE9AE
:102990000230C3F101004E00001B68434FF00008F5
:1029A00000FB05F907FB04FBC24605911EE01599E3
:1029B0000998CDE90001DDE90703DDE9021200F025
:1029C00048F803980599401C80B203908819884400
:1029D000059009EB4800B244002807DD0298C8447E
:1029E000401E80B2ABEB070BB9440290D345DEDA50
:1029F00000200290C5F10100401B604300FB04F879
:102A0000AB460024A14606FB0BF5DDF810A01BE049
:102A100015990998CDE90001DDE907035A460299A5
:102A200000F017F802985444401C80B2029008EB62
:102A30004400B944BA44002806DDABF10100444427
:102A40001FFA80FBAD1BB044A945E1DD0BB0BDE82A
:102A5000F08F2DE9F05F8946DDE90AA51F46834620
:102A6000E907AAEB020803EB090602F1010406D00C
:102A7000A3B21FFA88F2B1B25846FFF725FCA907A6
:102A8000A7EB090706D5A3B21FFA88F2B9B25846D8
:102A9000FFF71AFC280705D5A3B2B1B25246584633
:102AA000FFF712FC680707D5A3B2B9B252465846E1
:102AB000BDE8F05FFFF708BCBDE8F09F38B5C58FF3
:102AC000049C0094521BC46A92B2A04738BD38B52A
:102AD000049C0094FFF7F2FF38BD2DE9F0471C4637
:102AE00091468846064600F0DCFC00254FF6FF774D
:102AF00072682178304690470346B84225D0641C5E
:102B0000A3F57F40FE38F3D04A4641463046FFF7F2
:102B1000DCF996F8701031B1012907D0022908D0EC
:102B200003290FD10AE008EB000104E009EB0001E2
:102B300006E0A8EB00011FFA81F803E0A9EB000111
:102B40001FFA81F9284485B2D2E72846BDE8F0870C
:102B50000020704710B50C4600F006F80122641EF4
:102B6000A240801A40B210BD30B50568047B2A78B7
:102B7000E2406318DBB2082B09D36D1C05602D7889
:102B8000C4F10804A5401543083BEAB2DBB20124B6
:102B90008C40641E14400373204630BD2DE9F84379
:102BA000054600F1600400F00CF915F96B6F204642
:102BB000E97BFFF7CFFF8146297C2046FFF7CAFF5C
:102BC0000746697C20466B3DFFF7C4FF804694F9B9
:102BD0000A00002857DDF019404247B2237CA08844
:102BE0003A464946FFF78BFCA080237C3A46E088B2
:102BF0004946FFF792FCE080A188277C02460B46FD
:102C000037B1012F0AD0022F40D0032F0FD146E059
:102C100094F90A7030443B449BB207E0891B491C7D
:102C200094F90A705B1C89B29BB2384480B2009060
:102C30002846FFF783FB30B30020207284F8090098
:102C400095F876102046FFF78FFF814695F87710AC
:102C50002046FFF789FF074600224946284600F034
:102C600027F801223946284600F022F801212046A3
:102C7000FFF77AFF0028EFD194F90900B042DFDBBB
:102C8000A07B85F892004046BDE8F88394F90A706D
:102C90005B1CC91B491C89B29BB2921B04E094F9CE
:102CA0000A7033449BB2D21B521C92B2401CBDE747
:102CB0002DE9F74F84B00D46049C94F8687094F8A1
:102CC00069806034A07AC01BC6B20196B54200D2BA
:102CD00001954FFA88F279B2A088B4F806B0237C47
:102CE00092468946FFF70BFC0290237C52464946E8
:102CF0005846FFF712FC0246069808B1A17B02E095
:102D0000607B50B9E17B049880F89210207C0090A1
:102D1000DDE901310498FFF717F9B54207D3A81B85
:102D2000C5B208F10100002700F0FF08CAE77819D2
:102D3000207284F8098007B0BDE8F08F70B50D46A9
:102D40000146806D1730FF2D10D8612D02D3B1F8E8
:102D5000881003E0412D02D3B1F886100844417871
:102D600019B30278AA42F9D1801C70BDB1F88A105B
:102D70000C1826460021304600F019F804440221C0
:102D8000304600F014F8361DA842F3D34FF6FF7218
:102D9000207802EA00216078084306D0A84201D1D9
:102DA000E01C70BDA0780444F2E7002070BD084428
:102DB0004FF6FF720178407802EA0121084480B2A0
:102DC000704730B5054600F16004016600202073AD
:102DD00015F8781F2046FFF7C7FEA07269782046D5
:102DE000FFF7C2FEE072A87EA07310B10020E0736E
:102DF00030BD0120FBE78A4205D2834201D89A42C6
:102E000003D9012070478342F9D8002070470000A1
:102E1000F0B502F007060124B440002590F892E0D6
:102E2000E7B2DDF814C02C46BEF1010F01D83D46D3
:102E300000D03C46076822F00702BCF1000F3F7C3F
:102E400007FB02F7BAB2476B3A44114409D108783C
:102E50005B1E284360401B0401F8010B1B0CF6D1DC
:102E6000F0BD0A78761C2A436240A3F101030A7080
:102E700016F007069BB206D06A06150E6206140EFF
:102E8000002BEED1F0BD428F114490F89220012A20
:102E900003D800BF4FF00105F2D04FF00104EFE777
:102EA00008210170004870473801002070B50546C0
:102EB00008782870487868708878A870C878E870B2
:102EC000087928714879687188790C46A871E07989
:102ED000E871207A2872607A6872A07AA872E07A23
:102EE000E872207B2873607B6873A07BA873E07B0B
:102EF000E873207C287411212046FFF758FF688270
:102F000013212046FFF753FFA88215212046FFF723
:102F10004EFFE88270BD2DE9F843064690F8387000
:102F200090F83950006800244FF6FF7890F811901F
:102F3000316830462A460B7C716B04FB03FC1FFA98
:102F40008CFC08EACC0C61440091002100F040F8B0
:102F5000641C6D1CE4B2EDB2BC4201D24D45E7D316
:102F6000BDE8F883F0B590F838204FF6FF75036898
:102F700005EAC2018187197C05EAC101418790F801
:102F8000394005EAC401C1875E7CA718B74201D960
:102F9000321B92B205EAC20220F8401F1144418060
:102FA000998A8180D98AC180F0BDFFF7DBBF0021FB
:102FB000A0F84810B0F84410A0F84A10B0F840103B
:102FC000A0F84C10B0F84210A0F84E10FFF7B3BABA
:102FD0001CB58DF805108DF80620049C8DF8043082
:102FE0000094012284686B460F21A0471CBD30B4B9
:102FF00084680023A44630BC1A460A21604730B4D6
:1030000084680023A44630BC1A461021604730B4BF
:1030100084680023A4460A4630BC0B2160472DE992
:10302000F04115460E460446069F00F009F8676118
:10303000A660C4E903532046BDE8F04100F012B891
:10304000002140F8081B064A026042608260C260AC
:10305000C17681770161FF21017780F820107047E8
:103060000534000830B484680023A44630BC1A46F6
:1030700009216047080001D00A2801D14FF6FF70EE
:10308000704730B404690023A44630BC1A461921A5
:10309000604713B50122046901AB1721A0471CBD8D
:1030A00030B404690023A44630BC1A461821604796
:1030B00038B5184818290DD004DC142907D0172971
:1030C00023D10AE0192916D020291ED11FE0FEF7CE
:1030D000F7F91CE00021017019E00F4C08E000BF77
:1030E000017813F8015B6554491C521E0170D2B27D
:1030F000002AF5D10BE04FF47A7100910378064A6B
:1031000078210648FDF7B6FB08B1002038BD012044
:1031100038BD000000000020B80000201C00002086
:1031200030B4C4680023A44630BC1A461921604755
:1031300030B4C4680023A4460A4630BC1621604758
:1031400030B4C4680023A4460A4630BC1521604749
:1031500030B4C4681346A4460A4630BC1721604701
:10316000F8B50C464FEA000514F8011B182924D0C5
:103170000EDC152919D0162917D0172923D120784C
:103180008DF800006A4601212846FFF7E1FF0AE0BA
:10319000192912D0FE2916D122788DF80020292174
:1031A000284600F062F9641CDEE722788DF80020E2
:1031B000EE6800232846B047F5E70023EE681A467C
:1031C0002846B047D0E7F8BD30B4C4680023A44611
:1031D00030BC1A46182160472DE9F041DFF8B08075
:1031E00014460646A1F11402002798F800001D4677
:1031F000062A4AD2DFE802F02F03161B3E4310B125
:103200003046FFF73EFF3046FFF74AFF00213046C9
:10321000FFF73FFF21463046FFF73BFF012088F8CC
:10322000000029E021463046FFF733FF24E050B18B
:103230003046FFF726FF06E01821304600F01BF964
:10324000183CE4B21835182C2A46F5D821463046E9
:1032500000F011F90EE096F82400FF2802D1782042
:1032600086F8240037692B4622463046BC46BDE826
:10327000F041604788F800700120BDE8F081002827
:10328000F8D03046FFF7FDFEF4E70020F5E7000038
:103290001400002070B50023456904461A46282111
:1032A000A8470023E5681A4614212046A8470122B2
:1032B0004B21204600F0D9F82068292102792046C8
:1032C00000F0D3F800224B21204600F0CEF8206811
:1032D00029210279204600F0C8F801224B2120461E
:1032E00000F0C3F82068292142792046BDE87040EB
:1032F00000F0BBB80160897C80F8221070470000A4
:1033000070B50C46054600F019F888B9092C0BD0A9
:103310000A2C01D0002070BD2846FFF7BBFF0549ED
:103320002846FFF71DFF03E003492846FFF7E2FFA9
:10333000012070BDF6990008F89A00082DE9F041C7
:103340001E46144605460B2908D00D290ED00E291D
:103350001ED00F2927D00020BDE8F0811AB12849DE
:10336000FFF7FEFE4AE02649491FF9E74AB1244922
:103370000C31FFF7F5FE286890F8130085F822005D
:103380003CE01F49491DFFF7EBFE2868807CF5E70C
:10339000FFF71AFF81212846FFF7D2FE2146284673
:1033A000FFF7C6FE27E0FFF70FFF707995F82210B0
:1033B00001EBC000C7B240212846FFF7C1FE102034
:1033C00040EA17112846FFF7BBFE07F00F01284619
:1033D000FFF7AEFEB07940F0B0012846FFF7A8FE37
:1033E00030793268C006010E2846FFF7B1FE641E30
:1033F00014F0FF04F4D12846FFF792FE0120ABE75A
:10340000D59900080020704710B54D2919D00CDC63
:103410002B2918D004DC292920D02A290ED114E028
:103420002D290ED04C2909D10BE00022502919D0AA
:10343000512917D0522915D0532913D0012180F8D2
:103440002710012010BD00BFFBE700204FF4A07142
:1034500000BF401C80B28842FAD3F2E70120FDF79A
:103460003DF8EEE780F82720EBE730B4446900230D
:10347000A44630BC60472DE9F04115460E4604468F
:10348000FFF70EFE40212046FFF703FE27692B467B
:10349000324617212046B8472046BDE8F041FFF7E5
:1034A000F0BD002180F82610704700002DE9C041D2
:1034B00030B4DFF8A0C23CEA111418BF3CEA131480
:1034C00000F0EC8081EA03051CEA111444EAD5748B
:1034D00018BF1CEA131500F0C780A4EB05044FF0D9
:1034E000004545EAC12145EAC32341EA505143EA78
:1034F000525304F17F74994204F500344FEAC0201E
:103500004FEAC22208BF904200F09C804FEA136548
:103510000FF24016765D4FEA134506FB05F7C7F13B
:10352000807706FB07F74FEAD737A7FB0368764299
:10353000C8F58038A7FB06CE38BFA8F1010807FB05
:1035400008E64FF0000EA6FB028CE6FB03CEDCF192
:10355000000CCEF1004E38BFAEF1010EA6FB0C58A8
:103560004FF000074FF00005E6FB0E87A1FB08C6F1
:10357000A0FB07CE16EB0E0645F10005E1FB076543
:1035800015F1E04E7EBFA4F580345FEA46066D413A
:1035900016F1800745F100054FEA17274FEA066646
:1035A00047EA0567A6F1DE46B6F1805F4FEA1525CA
:1035B0001FD9384624F0010C05EBC471BCF1FE6F35
:1035C00001EB0C1102D8F0BCBDE8008124425CBFC5
:1035D00001F5801E9EEAC47F02D4F0BCBDE80081E4
:1035E000244238D4F0BCA1F1C041BDE8004100F054
:1035F000F3B94FEAD22242EA43524FEAD323A7FB60
:1036000002864FEAD02040EA415007FB03661EEADB
:103610000E0F4FEAD12105FB026658BFA6EB0056FC
:10362000B6EB00564FEA520E4EEAC37E18EB0E0E72
:1036300056EB530EBDD518EB02085E417F1C55F1C9
:103640000005B6E74FF480154FF000074FF0000675
:103650004FF00008ADE7F0BC4FF0000001F1C041B1
:1036600001F00041BDE8008111EA0C1F0CEA1315BE
:1036700000D00CE013EA0C1F00F025804FF0000092
:10368000F0BC81EA030101F00041BDE80081F0BC1B
:10369000BDE8004181EA030100F09EB9F0BCBDE83D
:1036A000004170B500F04AF9097EFC3E00F007B811
:1036B00081EA03014FF0000001F00041704781EA08
:1036C000030100F089B9F0BCBDE800414FF00000F3
:1036D00021497047FFFDFBF9F7F5F4F2F0EEEDEB51
:1036E000E9E8E6E4E3E1E0DEDDDBDAD8D7D5D4D300
:1036F000D1D0CFCDCCCBCAC8C7C6C5C4C2C1C0BF4C
:10370000BEBDBCBBBAB9B8B7B6B5B4B3B2B1B0AF51
:10371000AEADACABAAA9A8A8A7A6A5A4A3A3A2A135
:10372000A09F9F9E9D9C9C9B9A99999897979695F0
:1037300095949393929191908F8F8E8E8D8C8C8B8C
:103740008B8A898988888787868585848483838214
:10375000828181800000FF070000F87F4FEA41036B
:103760004FEA5353A3F58063D3F11E03C8BFD3F1CF
:10377000210C0CDD4FF0004242EAC12242EA5052D5
:1037800032FA03FC8CEAE17CACEBE1707047102B61
:10379000C4BF0020704703F5787CBCF1FF3F04D024
:1037A0006FF0004282EA2100704770B500F0C6F861
:1037B0004992248000207047F2E710F0004248BF91
:1037C0004042B0FA80F310FA03F10AD0C3F11D03AE
:1037D00003F580634FEA415002EB035202EBD12123
:1037E00070474FF000007047DFF848C170B51CEA21
:1037F000111E1EBF1CEA13159EEA0C0F95EA0C0F52
:1038000000F06F8081EA030423EA4C134EEAD47E71
:1038100021EA4C1141F4801143F48013AE44A1FB22
:10382000024CA0FB0365AEF17F7E361955EB0C050B
:10383000A1FB034C4CF10003A0FB021C16EB0C0691
:10384000654153F10003094218BF46F0010613F425
:10385000007F0BD14FEA03314FEA0530340341EAD0
:10386000155140EA16506FF003020AE04FEAC321F7
:103870004FEAC520F40241EA555140EA56506FF034
:10388000020202EB2E4201EB025585EACE710AD00C
:103890005FEA440C18BF24F0004450F1000041F1ED
:1038A000000120EAD47040F2FE7C624500D270BD77
:1038B000A84214BF4FF080444FF04044002E08BF90
:1038C0000024BEF1806FA8BFA1F1C041BDE87040E7
:1038D00080F282804FF0000001F1C04101F0004110
:1038E00070479EEA0C0F0CEA131518BF95EA0C0FEF
:1038F00006D04FF0000081EA030E0EF0004170BDCB
:1039000000F01CF88900013E00F007B800F009B88B
:103910004FEA430C5FEA5C5C08D081EA030100F0E7
:103920005BB84FEA410C5FEA5C5CF6D14FF00000F7
:10393000014970470000FF070000F87F0EF1020EFA
:103940002EF0030E5EF8046B364205D4012A43EBD9
:10395000030515F5001F12D8012841EB010C1CF5D9
:10396000001F0CD80ED14FEAD17C15F5001F0CEBCF
:103970004C0C0CF1020C08BF4CEBD37C04E04FF074
:10398000080C01E04FEAD37C0CEB4C0526FA05F657
:1039900006F00706B6F1040C06D20EEB860CBDE865
:1039A00070404CF0010C6047DFE80CF0090B02029C
:1039B0004FF000414FF00000A1F5002170BD194605
:1039C0001046012851EB010418BFD4F5001484BF40
:1039D000002001F0004170BD0808A0F500114FEA79
:1039E00031017047010202030405060708090A0BAA
:1039F0000C0D0E0F1010000000000000000001026E
:103A00000304060708090000000001020304E000A7
:103A100002020403020405080700FF04FF05FF007B
:103A2000E201D506D9200500510221064151A2022A
:103A300022072397925400230A55CF560D550D5552
:103A400001240B65CF9AC7C8688C1C01250644B1B8
:103A5000127B260954B11653ACD2082705215722F0
:103A60002807626FA69A012908626F1253A5002ADF
:103A700006227332022B0733919656022C05214FF2
:103A8000222D051393322E051151122F0744B11E1A
:103A9000DB003008439132921A0131064271B60AB6
:103AA0003207439132531A33074391B2F208340874
:103AB000439112D388013507439132F40836074306
:103AC0009132E21837074391325309380743917214
:103AD000A41139074391728E003A06315192023B8C
:103AE00006414F92043C06327126033D063391B2E3
:103AF000073E0732711215003F074271A272004063
:103B00000844B132D41E01410844B1A6E2980142F2
:103B10000844B1B2861C024307439136B3004408FF
:103B200044B1B2A21C09450844B172A43C02460843
:103B300044B132F4CA00470844B132741A03480849
:103B400044B112C794014906415132024A074391D8
:103B500032E3024B0844B112478A324C07439112B8
:103B6000CB014D0845D192D74A3A4E0844B112973D
:103B70009A014F0844B1A6A24C0A500844B1B2E2DF
:103B80004819510A45D132524C31AD00520744B167
:103B9000F22A03530844B136341A0A54074391B247
:103BA0006205550744B112CD21560844B112CDA487
:103BB00000570945D19255525D005807439192CA6A
:103BC00054590844B112871E025A0844B13262396E
:103BD000025B07626FB25A025C0944B19251461906
:103BE000055D07626FA25A035E062397D6005F0643
:103BF00014AF320260062277120361063391760415
:103C00006208439112555A0063063271B204640788
:103C100043919A56126507339132D2026608439156
:103C20009AD24A006707438F7226016808439112AF
:103C30005552016906415192046A07526F969302E8
:103C40006B07439112D32A6C06415132026D08353D
:103C5000D1A25AAA006E073391A2920A6F0733913C
:103C600032D2087008438FA2D28A007107438FB600
:103C7000920C72073271B2120073073391A692024E
:103C8000740743919656147507339192D4087607BA
:103C90003391925405770835D19255170078063341
:103CA00091923A7908438F92461C017A0733912208
:103CB000A3007B08638FA6CA1C057C05614F727D3B
:103CC00009638F22734C49017E0724B79654027F03
:103CD0000854B132A439048005005102810853917F
:103CE000927252238208639156C3A106830863919E
:103CF000D64647008408539192323A028508639170
:103D000096333A0286086391D6B946008707426F18
:103D1000B2460088076391D61E6A8908539192F2D1
:103D200050038A08639196F350038B0843919232B3
:103D30008A098C085331D74631018D0752711273AD
:103D40000A8E0954B112938A63068F0A64B1A6627F
:103D50005271CC00900964B15A8E91F208910835E5
:103D6000D136941A02920A48313F649A23E711939C
:103D7000086391D61E69049408539192F2482395E2
:103D800009639192331A690496086391D64E6A04C6
:103D900097086391962B35029809638F92721A31B6
:103DA00009990A54B112938A3229009A0954B1121E
:103DB000338A72089B050091029C050091029D05C3
:103DC0000091029E050091029F05009102A00863E8
:103DD0009156E33502A1075271A65302A2096391DD
:103DE0009A321A6904A30963919A324A6A04A40AAE
:103DF000649196548632B500A50964B19654B9D43D
:103E00000CA6065151A204A708638F32E29823A89A
:103E10000614B91203A90F772F3754866AA9AC96F6
:103E200086692800AA05003103AB07339136A2004A
:103E3000AC0623933203AD05003103AE0E772F3766
:103E400054866A99AAD2300D05AF0614B93202B071
:103E500007339532D208B107433197561AB2073368
:103E60009522A300B3063275A206B4062277A600F7
:103E7000B508432F93D49000B60A56EF36AEB4720D
:103E8000CA29B705917312B805003103B906327516
:103E9000A20ABA07339532D208BB073391224702F0
:103EA000BC0E670FA3639D324C398E8C1200BD0D82
:103EB000670FA3639D324C32A78C04BE0E672FA3FD
:103EC00063A9324C398E8C1200BF05009102C00AE2
:103ED00064B196515471CC00C10964B15AAB3866D3
:103EE00000C20A64B1A6625271CC00C30A64B196E2
:103EF000545471CC00C40954B112938A6306C509A5
:103F000064B1A6B18A6306C60A48313F649A23E7C2
:103F100011C70954AF32F4885101C80A64B19651EF
:103F20001A23E511C90964B15A8E91F208CA0A64CC
:103F3000B1A6E2182A8F00CB0A64B112331A23E526
:103F400011CC07627112550BCD076271265303CE57
:103F5000076391D6D902CF08539192CA1600D008B0
:103F600045D176956901D10964B19654867119D20B
:103F70000A64B1965154512605D30964B15AAB284D
:103F80009302D40A64B1A66252512605D50A64B1DF
:103F9000965454512605D60A54B112938A322900F8
:103FA000D7063391923AD80C66EF0EE34C52C5997E
:103FB0002100D90964B19651690E01DA0864B1DAB9
:103FC000348700DB0A64B1A66246510E01DC095455
:103FD000B112338A7208DD0864B1DA1C7A08DE0A8D
:103FE00064AF925794236500DF08538FA2545A118F
:103FF000E008639196333A02E108639156E3350293
:10400000E2086391D6464700E30A64919654C6AA33
:104010005A00E408539192323A02E5086391D6B906
:104020004600E60835D136941A02E707426FB246D9
:1040300000E808639196F3480BE909639156C39130
:104040001600EA086391D61E6901EB08539192F2BB
:10405000480BEC07527112730AED075271A6530216
:10406000EE085391D6463101EF08439192328A0906
:10407000F00A64B126354A232605F10A6491965464
:104080008632B500F208639196F34823F3096391F1
:1040900056C3914600F4086391D61E6904F50A647C
:1040A00091965486AB5A00F608539192F24823F742
:1040B00008539196D14609F80A55CF8ED24C7165B6
:1040C00004F9086391962B3502FA09639156C3A44B
:1040D0004600FB086391D64E6A04FC085391927225
:1040E0005223FD09738F56C3346212FE08538F1298
:1040F000555A11FF09638F92721A310900000004AA
:10410000FFFF00005F000202030302040404060034
:10411000FF05FF05FF00E901D302B6200580CD00B1
:104120002106E9C8AC00220693CB2415230AACC8AB
:10413000A434541A2A012409B3C7A5A1474A00256B
:1041400008ABC864D446012609ACC8C514AB9802B4
:104150002705D1CB082807F2C7A966002908B2C7EE
:10416000C45429002A07ABC8A46A352B08ABC8C5BC
:10417000B462022C0692C729002D058BCA0C2E05AD
:10418000C9C8042F07ABC85665043008ABC85543EF
:1041900055003107ABC825590D3207ABC835531A46
:1041A0003308ABC8CC9417003408ABC8243562017F
:1041B0003508ABC88CA817003607ABC84DD50237F9
:1041C00008ABC8CC5446003807ABC8ADD602390797
:1041D000ABC8B5E4023A06E1C8C4003B07AAC7650C
:1041E000A8003C07ABC8A6BA003D069BC9EC013E3F
:1041F00007ABC8E4AA043F08ABC8E89461024006D4
:10420000ABC82D5B4108ABC85543A9004208ABC8F9
:10421000A8B4D2024308ABC8553255004408ABC815
:10422000A8642D004508ABC88CA8E2004608ABC8BE
:104230008CA862044708ABC8CDA492004808ABC85C
:104240002435940A4907ABC8AC580D4A07ABC89649
:10425000AA024B08ABC824B5920A4C07ABC8C4E607
:10426000004D08ABC8A431940A4E08ABC8AAA124DB
:10427000004F07ABC85556055008ABC8A8B4620438
:104280005107B3C755561D5208ABC8A8B4920A537C
:1042900007ABC8EDBC005407ABC8ACD8025507ABA0
:1042A000C824D7085608ABC8246BA4045708ABC869
:1042B0002435860A5808ABC824D552015908ABC822
:1042C000245556005A07ABC8CC540E5B06EAC8AC5E
:1042D0004A5C07ABC8C45C065D06AAC8A86A5E054E
:1042E00093CB355F058BC70C6006D2CBC40061074A
:1042F000A3C82D95046208ABC84495D4026306A3F5
:10430000C8CD2C6408ABC8A6A592006506A3C85505
:10431000536608ABC8A6B462026708ABC7AD2417E2
:10432000006808ABC84495AC006908ABC86524D3E5
:10433000006A08B3C766582E006B08ABC8C4B492B5
:104340000A6C07ABC8C8D6006D08A3C8A4A1540066
:104350006E07A3C8A864056F07A3C855AA02700812
:10436000ABC7A8B462047108ABC72D95640072088E
:10437000A3C8A41523007307A3C88DBC007408ABA1
:10438000C8A51573007507A3C8242B097607A3C811
:1043900024AB027708A3C8243554007807A3C8A427
:1043A00032157908ABC72495E4027A07A3C8CC94E8
:1043B000067B08B3C7A624EB007C06E9C80C017D88
:1043C00009B3C7E4A8628A007E0794CB2595000054
:1043D000000004FFFF0000BF000202040403040504
:1043E0000C0DFFFE08FE08FE016A032C098420055F
:1043F00000CC09210882C4C991F2082207336D4B11
:10440000B202231087447CCAA81C3365548E9932AB
:10441000AA012410A53C6B1E2AA938E28849A5A14F
:10442000230025158AC49DD44A65552355499554C2
:104430004649E5A8725600261188C4AC862A239501
:10444000A186494B73A4A5002706316DCA00280B2D
:10445000A4B47A8C4ABA754601290AA4B44A46D94A
:1044600074C91A2A09555C6B55AD66042B0B554C63
:104470006B4671C88C22002C0742B4C9480A2D062D
:10448000135CCA002E0622C4C9082F0A84C47A9974
:10449000638E3903300E8544DB52238D34D248239A
:1044A000A905310984459B9ABE4600320C8544DB40
:1044B00052236929F33802330E8544DB5223498D98
:1044C000461A492D00340B8544EB95549A636439A0
:1044D000350D8544CB2BA391D14823A905360E85F4
:1044E00044DB52238FA4461A492D00370A8444CB5B
:1044F000A1638E2E00380E8544DB5223A9A5461AEF
:10450000492D00390E8544DB52238DA4461E492DCA
:10451000003A0752C4C988233B0972B4C9882329C9
:10452000003C0956CC3B9236D6583D083554CBD08A
:1045300070083E0A56CC8BC61A4B1B013F0A8544B5
:10454000DBB2A5CCB4094012A93CFD465A6698E2FC
:1045500048FE5432939A1E11411289433CCAD4C674
:104560001B468DA21E2366A4E608420E8744CC6932
:104570004935A425951C430143108744ECAA4746BE
:104580001B6AA8518DE24800440F88C4CCADA356E5
:104590005A69A5954E6302450E86C4CB25938A239E
:1045A000AA28931C23460E86C4CB25934C2A8EA89A
:1045B000A21E11470E8744ECAA47461BCAA1559676
:1045C0002B48128944CD482369A9E518514B2DB5D4
:1045D0001A6904490984C4CA48D2D7084A0C86C457
:1045E000EBC81A69E42BCA094B1189C4CC887696AA
:1045F00019A90C8746525B230E4C0F86C4CBC81AF0
:1046000069A4914632C931024D158B44CEC823EDC1
:104610009954924925995492D18CD652234E11889F
:10462000C48C5E3ACE38524C23C699D54E004F0EFC
:104630008744ECAEF4C8238FAC729E00500F8744C1
:10464000CC694925D5901A6A3432005113983CEC54
:1046500046396AA595562349A5D148192A00520D15
:1046600088C4CC2D3DF3D0D235D200530D86C4DBA7
:1046700039F2D068E811D702540E86C4CB915C5150
:10468000238D34D22301551088C4CC484B471D7567
:10469000D451479D4704561188C4CC484B479D557B
:1046A000462A2395A1C61A57158B44CE486A491944
:1046B000CDA8928A2AA9BC36D21A6909581088C492
:1046C000CC484BC795D1C61BA599D511591188C4A3
:1046D000CC484B679591CA50638D351C115A0B8697
:1046E000C4CB91F57CEB31025B08A334CA50FE1AAF
:1046F0005C0C84C44ACE28679433CA015D08A33495
:10470000CAF2D7105E0A65546B4679A65A075F064F
:104710001634CB01600623748A14610954C4CA5646
:10472000238D01620E86C48B461A69641D71C4B55F
:104730000063095544DB925BA605640E86C4FB4604
:104740001AA931E288232D0365095544DB52E3465B
:1047500023660C85C4EA52498EA8CD9100670D8668
:10476000343B8A5339F7D8632400680E86C48B46DD
:104770001A69641D71C41105690A84C49AD470BA97
:1047800046006A09A3B49ABDBC46026B0E86448BF0
:10479000461A69648D38A2B2066C0884C4CAF46BE8
:1047A000046D0D5AC48D92EA11E5887244036E0BB4
:1047B00056C48B52471C7144016F0C56C4DB4872BF
:1047C000C411D54800700D76B48B52471C718CA46F
:1047D000D106710E77B4DB505249A5A6D250A31171
:1047E000720954C48A1A239A00730954C4DA9023B4
:1047F0000E05740973445A52439902750B56C48BC3
:104800001C71C4919601760B56C4CBB2A2CA1A4948
:1048100000770C5944CDF28A4A65A59109780A5669
:10482000C4CBB2B24ED600790D76B4CBB2A2CA1ABE
:10483000C9AD11007A085544CB25CD317B0AA4B40B
:10484000AA9296966E017C068146CB217D0AA4B47D
:104850008A96B6922E097E0726DCDB520BA0050055
:10486000CC09A10982B4C9C8698C00A20C753C3B73
:104870004A632595569A19A3108744EC88326A3406
:10488000B6465A8D911600A40C574C4C5AC9545236
:10489000A9B402A51288C4CC484B6795918D341CED
:1048A0001A69382200A6078146CB1A01A70DA4B4C5
:1048B000DA885BA591929E2301A80723744A5201CE
:1048C000A91288C4ECC819954BC5A43292AB46799D
:1048D0004400AA0863548A1E2A0FAB0A56C46BA56B
:1048E00046924A16AC093554CBD028A300AD061326
:1048F0005CCA00AE1288C4ECC8195523A998D454D8
:1049000049D5288F08AF0614F4CA08B00843645A82
:10491000A52A00B109554C6B1C325343B20743E43E
:10492000D9AA06B30743E4C9CA0BB4072374DA480B
:1049300000B50E76B48B1C71C491C61A196904B601
:10494000108744DC38521A29AE8C6A54A37A08B70F
:104950000622DCC908B80632354A1CB90743E459B7
:104960009269BA0A64D49A8A32693802BB0C56C476
:104970004B8C4AAA91548C00BC1188C45C8EBACC72
:104980002BE39851D269C49C00BD0F88C45C8EBAD9
:10499000CC2BE3A85399CB01BE1188C4CCCC35AA4B
:1049A00065C631A3A4D3883901BF0B8534ABD67457
:1049B000B4955A00C015B943AC2635CF4C6DBC61D7
:1049C000D428EA3162466A8E00C115B9433CD458F6
:1049D000F3CAD4C61B468DA21E2366A4E608C215E0
:1049E000B943FC864A73676AE30DA346518F1133BE
:1049F000527304C316B943BCCA28695E99DA78C3F6
:104A0000A851D463C48CD41C01C416B9437CCA38E1
:104A1000655E99DA78C3A851D463C48CD41C01C5EF
:104A200016B943BCC631634D666AE30DA346518F88
:104A30001133527304C6148AC4ED183AC99C548EBB
:104A4000230F15B34C598E3406C712A734ECAA476E
:104A5000461B6AA8518DE2C828430DC812B6C49BF4
:104A6000869A1C4B261547545126394600C910B664
:104A7000C4BB4D8E25938A23AA28931C23CA11B642
:104A8000C4EB541A8F25938A23AA28931C23CB1294
:104A9000B6C46BCA295363C9A4E2882ACA24C708CA
:104AA000CC0BB4C48AD67024E96B04CD0BB4C4AA71
:104AB000D27024E96B04CE0CB5C4DAB2E188DAE72F
:104AC0004800CF0BB4C45A371A49FA1A01D00F88DC
:104AD000C4CCADA31E5369A5954E6302D114B8C4CE
:104AE000BCCA49B3F4D271C691621A31CEAC760217
:104AF000D211B744ACC69AB92B3DF2C823AB9C2760
:104B000000D311B744BC469ABD2B3DF2C823AB9CE1
:104B10002700D411B744EC569AB52B3DF2C823AB0D
:104B20009C2700D511B744AC8A493377A5471E7935
:104B30006495F304D611B7446CCAA866EE4A8F3C5C
:104B4000F2C82AE709D709554C8B523B2F03D810DE
:104B50008744ECAA931C2A8D94865439A509D9134D
:104B6000B8C4ACA63473A4A5A38E3AEAA8A3CE23F6
:104B700002DA14B8C43CD25033475A3AEAA8A38E9A
:104B80003AEA3C2200DB13B8C4FC46363DD2D2518F
:104B9000471D75D451E71101DC14B8C47CCA3065D7
:104BA000D6484B471D75D451479D4704DD15B8C401
:104BB0003CD25033475A3AAB8C54861A6BACE188DE
:104BC00000DE0F8744CC86435A524935A44623035E
:104BD000DF0E8744EC889654A625951C4A01E00B0D
:104BE00084C48AD670AB91C600E10B84C4AAD2708B
:104BF000AB91C600E20D95C46A5E36DC48AEA446B1
:104C000002E30C85C49A1B6F2457522301E40B84E2
:104C1000C44A6AC3AD461A03E50B84C49A8A496D37
:104C200035D218E60C58C4CC5A51A971E93502E7BF
:104C30000B7534DB925BA69D2500E80C85449B46F2
:104C40009A5A6ADC6804E90B8544AB4D2E356E3404
:104C500002EA0C95446B5E365E6ADC6804EB0C85F8
:104C6000445B9932B5D4B8D108EC0A84C48AD670B2
:104C7000BA4600ED0A84C4AAD270BA4600EE0B957B
:104C8000C46A5E36DCCE9100EF0A84C44A6AC3E986
:104C90001A01F00E86C48B8CB31E498E38A21A09F5
:104CA000F10D86C49BAA34A9D411471C51F20E867B
:104CB000C49B869A1E498E38A21A09F30D86C4BB7E
:104CC0004D8F24471C518D04F41096C46B465369D4
:104CD000722439E2886A2400F50F86C4ABAA3439FD
:104CE000921C7144351200F60F86C45B9D323D92D2
:104CF0001C7144351200F70A554C6BA686A622009B
:104D0000F80E76BC3B4C23A9B14654236508F90D37
:104D100086C49B869A94238E38D232FA0C86C4BB02
:104D20004DCA11471C6919FB0F96C46B4653694A5B
:104D30008E38E248CB00FC0D86C45B9D3229471CAF
:104D400071A465FD0EA6B4BB4D2E2BAAAC91DC1A46
:104D500001FE10A6B48B461A69641D71C4319246D7
:104D60001BFF0FA6B45B9D32B9ACA8B246726B04B0
:104D700000000004FFFF00005F00030304040305BC
:104D800005100FFEFD0BFD0BFE01C0044005FA20CF
:104D900005008C142109B28514074ACC002208436F
:104DA000BD15112D012316A7847891602418099947
:104DB00022C148C8140946829118002417D77C786C
:104DC000C18A24328A5062C4222D42094D22926245
:104DD0000C00251FBC845DC2A084284A1445A29201
:104DE000505814138724C190281812C5629260503D
:104DF00004261ABC847D7491582416C52173086951
:104E0000141A856434E188562A8900270641BD13A7
:104E100004280DD47475A19028A4B7982C18290ED5
:104E2000D47415C1982C26D229244A032A0B55B4D0
:104E3000562929934C21002B0B778C78E1B45B38F1
:104E40000D002C085275141609002D07249C158797
:104E5000002E06328514062F0DB48475996249B16F
:104E6000A4580C00300DB7845833891ABF49D44672
:104E7000003109B58558129AFE44320DB7843824A2
:104E8000514DAAA8DBE1103310B7843824514D2AC4
:104E90009491A534D284043411B78498C2B5882C77
:104EA000220A894292A354483511B7843896523861
:104EB0006524994A69A40909003610B78458241159
:104EC0008D2A59A9B195242400370FB784180FC132
:104ED000484C2A942A4AD5003811B78438A4118D39
:104EE0006689912236A61105003910B784581451ED
:104EF0008DADB222A5914424003A07728514260391
:104F00003B09927514268B04003C0A778CD8C1D1DA
:104F1000F272003D07379C18F7033E0A778C18E1C0
:104F20004D8B61003F0EB6843714114928538C0312
:104F30003501401DBD849ED6E14836922849482A55
:104F4000149188229268992849867248EC2002417F
:104F500017BA849B72883C228E8843D1983026B43D
:104F6000454551C98C004215B9841A372599482600
:104F7000523B0925428950223B8C004317BA847B5F
:104F800095C850229ECF2172881C2207892343593D
:104F900009004419BB841C87A070241589256289E7
:104FA00058229688255291707288014517B9841A43
:104FB000078950228D885244C1A228284A914684EC
:104FC00007024616B9841A078950228D885244C1B7
:104FD000A228280ACAC554004718BB847C95D05023
:104FE000248EC82372901C243C8BA4A2D990140157
:104FF0004818BB841C348A542415494552D1412495
:1050000015494552915442234909B485171491FE1C
:10501000424A0EB7847944A95E44129124B4064BE7
:1050200017BB841C249230288B8AC292785932157F
:105030000D6533E184544C0EB9841A64B9BE46A49C
:1050400011E181004D24BD841E54CA74341D456491
:1050500011514416114564115148121285242151F1
:10506000481212C5544622024E1CBB841CD3C934BC
:10507000440C4566A1902C1413A54D424152741462
:10508000968C23004F12BB847CC5D9482A91F32EFD
:10509000918A66C31A005012B9841A87906C2294C0
:1050A0000825B2894DAE990A5119EB6C7CC5D948D7
:1050B0002A91F332938824A211B10E128527F109A7
:1050C000005217BB841C87A06C269409658A5699E8
:1050D000502654134A6A13005312B9845A94C84C88
:1050E000228D482364E7319152025416BA841B87FB
:1050F0009268A62D2887C82172881C2287C869005B
:105100005518BB841CC48938240E8943E290382486
:105110000E8943E298305A035618BA841BB4893476
:10512000248DC982B2A02C2A094BC292B81C220439
:105130005724BD841E14CA44260BC96421992C2609
:10514000894882928824288948829288242A13CB0D
:10515000C43219005817BB841C25CA50268C8AE219
:1051600092F83C220F498332E184545917BA841BC8
:10517000B48934260BCAA292B0242E87C821728823
:105180009C065A0FB8841987E19036D53A230E0F42
:10519000035B09D4741526FD27025C0FB68417D172
:1051A00070341C0D47C3D170005D09D4741524FD03
:1051B00027035E0F77A478E1E83012938862119993
:1051C000005F0617741707600834C5163261006166
:1051D0000E788459349158569149442B036213B97F
:1051E000841A735D66234589502294C844111200C5
:1051F000630E77845824118D2A8C8844140064131C
:10520000B984BA736D139168229408254291683667
:1052100019650E78845934914478A8CB44150066FA
:105220000DB6845623896E25A16E24006710B76CD5
:10523000B8928A8C26A9844D57A1A4026811B9841A
:105240001A735D662335914C2413C9240C690AA492
:10525000843522E9482F046A0CD56A75EA337DA3A8
:105260004826006B11B88419639D26221519512216
:10527000134946036C09B4841523FD0B016D127E9E
:10528000841F93D16C3452539229C994642A1C6EA2
:105290001079841A93D9484D2413C9443209036FF5
:1052A0000E788459349144C82811C948007013A954
:1052B0006C1A93D94851229408252395995C4C0582
:1052C0007113A96C5994906822940825429168360C
:1052D000912B13720B7784179315558D3400730A35
:1052E0007684373722DB0500740FA68456D1A0AC34
:1052F00024D41411852600751179841AA3914C24A5
:1053000013C9443291683619761078831794892C22
:10531000248B498292A8580677187D831C14CA44AE
:10532000260BC964314944129444245199582603E8
:10533000780F788419A389484695D26292D1007972
:1053400014A86B1794892C248B498292A8581C941A
:1053500004A7007A0876841737BD1D7B0DD57476B7
:10536000A298B6D4A04C312A7C07B1871807027DD9
:105370000FD57416D2A04C311A8B690BC9007E0967
:1053800027A43813CA040000000004FFFF0000BF78
:1053900000030305050405061213FEFD0CFD0CFEBB
:1053A000023104F90EFA200600642401210D832540
:1053B0002C13395442D1882502220CA5E0352161F5
:1053C0001945421100231A8A215427128A8422D1B6
:1053D000417210298A4407C941A428128A64002412
:1053E0001DE9E1531987846B9250441429A5188F45
:1053F0009650A8122285249288AC1C0425258C2561
:1054000074350B4E88A2485016098A225151243215
:105410009A4426D1882818910523A26048148C8DBF
:1054200000261A8C25744917894562519C892219D6
:10543000494693908CB654B29426002708A2E425DE
:10544000718900280EC4A533170AA988F42692058D
:1054500003290FC4A133118C896422BD88446900DB
:105460002A11E76045178CA44822A2912422C9186A
:10547000032B0D08255427563B1C646235002C0C69
:10548000C4602B23A18C429218002D0744E02C719C
:10549000082E0964202C23A148002F0F85212C9968
:1054A000164C0BC68269C1200030148921543795EF
:1054B000C894649299B7894C245391CE00310A87DD
:1054C0002554272AEE9F0E3213882554458B4946D2
:1054D000A6496C38D516111E0E0333158921545573
:1054E000132DC9626269793E919D26A25909003443
:1054F000148921541D174F89916164161AC54607F6
:10550000E1787835138825547331C5E3B5D0781226
:1055100033994AA31200361689215457134D441467
:1055200099643C1951D66C13D964910437128825BB
:1055300054F110094A82926058552C5D0E023815BC
:1055400088255445134946A68948461349464E13B3
:10555000918C043917892154459CAC4966B6C9849D
:1055600034194F6412926424AB013A0D04212C23A8
:10557000A1C861128A04003B0F64612B23A1C8619A
:1055800012CA282489013C0B0865542D24319299B4
:10559000053D0BC86454F120473A1C043E0B0865D6
:1055A0005421E6486214033F1488214445134928D6
:1055B00013D1702A8DA384A7E32000401CACE163C3
:1055C000599D8DE4A19824429288F42F14C9241483
:1055D00092C5E4A2D9B406411B8D216C2B07CE6184
:1055E00073101D14994BE6B1E9212A9B4667D2112D
:1055F000CD00421A8C216C7118CE1647C3D16C763F
:1056000008CE1647C3D170349B1C460043198B2526
:105610006C5909CD2653C9984E87CC21F3C838322E
:105620008DCDA43400441A8D21747110CF866BC3C4
:10563000D974341D4D47D3D170369C2D1D8400453F
:10564000198B216471200D4543D1286922B54EA4E0
:10565000A3A46968281A1E0C46198B216471200DB9
:105660004543D1286922B54EA4A3E81C32878C8F0C
:1056700000471A8D25745909CE5665E3D03C34870E
:10568000CD0ED3D970365C22934200480F8E217C18
:1056900071310DF7E361B8FF7431490A87213C711C
:1056A0001AEE9F0E4A128A215C779DEF261A514608
:1056B0004BC1916858044B1A8E216C71A90DA5330A
:1056C000F1483E9143EEF70979449D1187948B018F
:1056D0004C198B2164719E43E69039640E9943E620
:1056E0009069681A1A8A8607034D259021846134CF
:1056F0001189911931328A0C23A3C83034890C43A3
:10570000A46188348C8D8631D9306D540A194E1DB0
:105710008E2174412D8D83D4603185160C91823198
:105720004A30588C12C3C3B8A81C024F168C25747B
:10573000491ECD86A3E164EC79321C0D67A33111BB
:105740000050198C216C7118CE1647C3D170349B50
:105750001D8273D01C3407CDAF00511DEC65734919
:105760001ECD86A3E164EC493491842222B6D1B8DF
:105770000E9BC4EB900900521B8D21747198CE864C
:105780006BC3D9E2213A128FA6B3E16C129A1D685D
:105790001300531489255C5549AC926D11A32566FD
:1057A000A6162391120054198B21647130ADCD647B
:1057B000B3E01C3287CC2173C81C32878C4F005554
:1057C0001B8E2174712A8D83E3E038380E8E83E3BB
:1057D000E038388E0EC32439840A561B8D1D6C7137
:1057E000224D65C4E8303A8B8FE29338A40EA28331
:1057F000E64039500A57228F2184516199E9161CDD
:105800008D82A3897042094B229230853C9A436471
:1058100072884C0E910901581A8C216451AA4C656A
:10582000C3E8285C87D021744839440CCEA4935235
:1058300001591C8D1D6471290DA5B3F0280E99C462
:105840002174D81C3687CD6173D81C72035A148911
:10585000255C71201227C1E9F27416194666B5431A
:10586000015B09C4A53361D2FF445C108725542134
:10587000154BC552B1542C154B055D09C4A53B41D0
:10588000D2FF645E0DE864552796D2445A844401E1
:105890005F0748A043F1206008646036219A0961DF
:1058A00011092154635A910D4BA2C96832214D0848
:1058B000621B8B1D5C5187CC2173C81CB248992D8B
:1058C000CD46B3D16C449945222300630E08214C88
:1058D000551A95AC6B92898C04641A8B215C4B87AA
:1058E000CC2173C870329B9066A3D968369AAD10EC
:1058F0002791016510092154559BAC1D0EE1A1644F
:10590000242B016610891D3C49948C26B2E171BCA0
:10591000C7130067128961532FBA6CB35D4645F90E
:10592000E5403C500068198B1D5C4187CC2173C851
:105930001C32A19146A4B5D16C341BCD260D690B48
:105940008521342322C949FB526A10E6593327A323
:10595000C921B57DAB544423006B178B215C418773
:10596000CC2173C81C3229AD4D86D6E368B6D2006F
:105970006C0985213441DA7F296D100F218441198A
:10598000CD2894D1FE7FA94C0A6E120B1D5C41A15B
:1059900091D646B3D16C341BCD260D6F0F0A215C16
:1059A000471C4D861E27A3210D0070176A5D5B41C1
:1059B000995146B3C96C329BCC2694D164361F579B
:1059C0000171136A5D535509ADCC26B3C96C321B06
:1059D000ADDD970B720E09214C4119519644E3AD90
:1059E0004500730D0721444399D54EB7DA840274FC
:1059F0000F66213C170D8A2CB35D22A50900751492
:105A00000B1D5C4122CD46B3D16C341BCD46145ADC
:105A1000650076130A215451A1CC4423E14438098E
:105A200093E710210077170F217C516199A98D46CA
:105A3000C109454A2153E83239442604780F092127
:105A40005451598B55C7D35A6C322979166A5D5314
:105A500051A1CC6423D9285A9ECF21524974129E59
:105A6000027A0F07214C71104942B3A170443A08E1
:105A70007B0DC4A5332511E92213E94D007C088272
:105A80003154F161007D0DC4A1332113E92611E9E0
:105A900045047E0C68E454338A1C22A10900A00648
:105AA00000642401A10D83652B13B1444391432568
:105AB00002A21488A1531F8E95462597D824141945
:105AC000C588E13000A316892154571B494693D15C
:105AD00064161B5EE5529AC4241901A41508A55446
